:020000040800F2
:1000000040560020712F0008090600080B06000862
:100010000F0600081306000817060008000000007D
:100020000000000000000000000000001B060008A7
:100030001D060008000000001F0600082106000839
:100040008B2F00088B2F00088B2F00088B2F0008A8
:100050008B2F00088B2F00088B2F00088B2F000898
:100060008B2F00088B2F00088B2F00088B2F000888
:100070008B2F00088B2F00088B2F00088B2F000878
:100080008B2F00088B2F00088B2F00088B2F000868
:100090008B2F00088B2F00088B2F00088B2F000858
:1000A0008B2F00088B2F00088B2F00088B2F000848
:1000B0008B2F00088B2F00088B2F00088B2F000838
:1000C0008B2F00088B2F00088B2F00088B2F000828
:1000D0008B2F0008230600088B2F00088B2F0008A9
:1000E0008B2F00088B2F00088B2F00088B2F000808
:1000F0008B2F00088B2F00088B2F00088B2F0008F8
:100100008B2F00088B2F00088B2F00088B2F0008E7
:100110008B2F00088B2F00088B2F00088B2F0008D7
:100120008B2F00088B2F00088B2F00088B2F0008C7
:1001300000F002F800F06CF80AA090E8000C82448D
:100140008344AAF10107DA4501D100F061F8AFF26A
:10015000090EBAE80F0013F0010F18BFFB1A43F0A5
:1001600001031847F47B0000147C000010F8013BE9
:100170000A4413F0030408BF10F8014B1D1108BF17
:1001800010F8015B641E05D010F8016B641E01F8C5
:10019000016BF9D1002D15D010F8014B03F00C03C1
:1001A0000C2BA1EB04040ABF10F8013BA4EB831451
:1001B000A4EB032405F1010314F8016B5B1E01F8A5
:1001C000016BF9D5914238BF10F8013BD1D370478C
:1001D0000023002400250026103A28BF78C1FBD850
:1001E000520728BF30C148BF0B607047782905F01F
:1001F0007380002070471FB505F07EFD04000020CD
:10020000002106F095F9401C60601FBD10B510BDBF
:1002100005F03EFD1146FFF7EEFF00F016F805F081
:1002200065FD03B4FFF7F2FF03BC02F027FE0000F8
:100230001CB50446AF480C211023D822CDE900108C
:100240002146022002F015FD1CBD1CB502F092FDF6
:1002500002F00EFE4FF4613002F01EFE02F070FD5F
:1002600000F050FE00F0E6FA04F040FE4FF4784053
:10027000A1490880A14810210B46C822CDE90010F1
:100280000A21142002F0F5FC1F209B49088006E09B
:10029000002000F0E9FA0446012C00D100E0F7E765
:1002A00000BF082002F0D2FDC8E004F037FE4FF492
:1002B000FA7002F09BFD92480078032837DD9048E1
:1002C000027890498B4802F007FD2820FFF7B0FF25
:1002D0008C480078AA2801D1012000E0002089493B
:1002E000097B09B9012100E0002108408549497BCB
:1002F00009B9012100E0002108420AD082A00C21A6
:100300001023C822CDE900103721142002F0B1FCDF
:1003100009E085A00C211023C822CDE90010372167
:10032000142002F0A6FC00207549087000E085E06A
:10033000012002F08BFD012004F0FCFD4FF4FA7067
:1003400002F054FD6E480078032838DD6C480278CE
:100350006C49684802F0C0FC5020FFF769FF69480B
:100360000078AA2801D1012000E000206549097B1E
:10037000022901D1012100E0002108406149497BA7
:1003800009B9012100E0002108420AD06EA00C2129
:100390001023C822CDE900105F21142002F069FC6F
:1003A00009E071A00C211023C822CDE900105F21C3
:1003B000142002F05EFC00205149087000E03DE08E
:1003C000012002F043FD042004F0C1FD4FF4FA7057
:1003D00002F00CFD4A48007803282DDD48480278D9
:1003E0004849444802F078FC7820FFF721FF45484F
:1003F0000078AA2801D1012000E000204149097BB2
:10040000022901D1012100E0002108403D49497B3A
:1004100009B9012100E00021084209D05AA00C21AD
:100420001023C822CDE900108721142002F021FCFE
:1004300000203349087000E000E000E035E700BF2D
:10044000052002F003FD55A00C211023C822CDE9A0
:1004500000109B21142002F00CFC55A00C2110234D
:10046000C822CDE90010AF21142002F002FC04F0F4
:10047000A5FD012002F0EAFC00200090514B4FF056
:100480007E5264210190482004F068FD042002F0AF
:10049000DDFC4DA00C211023C822CDE90010C321A2
:1004A000142002F0E6FB04F064FE042002F0CEFC0F
:1004B000002000900346494AC8210190482004F0DA
:1004C0004DFD47A00C211023C822CDE90010D721F3
:1004D000142002F0CEFB012004F039FD09E045A014
:1004E0000C211023C822CDE90010EB21142002F0CA
:1004F000C0FBF4E7000000203200002001000020D3
:10050000190000208C0600204163746976617469CB
:100510006F6E205375636365737320202020202045
:1005200020202020202000004163746976617469D6
:100530006F6E206572726F72202020202020202094
:1005400020202020202000004F627461696E20531B
:1005500075636365737320202020202020202020D5
:1005600020202020202000004F627461696E2065E9
:1005700072726F7220202020202020202020202036
:100580002020202020200000426567696E20746FC3
:100590002054616B65206F666600000054616B65D6
:1005A000206F6666205375636365737300000000F7
:1005B000426567696E20746F20666C79206375628E
:1005C00065000000CFF7D3BE426567696E20746F87
:1005D00020666C7920636972636C65000000C0401E
:1005E000426567696E20746F20676F20686F6D6564
:1005F00000000000416C6C207461736B2066696EB2
:100600006973686564200000704700BFFEE700BFA3
:10061000FEE700BFFEE700BFFEE770477047704788
:10062000704710B540F22551084803F06DFA58B1F3
:100630000648001D0088C1B2054802780078401CB9
:10064000034B18700348815410BD0000003801406E
:10065000190000208C0600200CB5002001900090AD
:100660006B48006840F480306949086000BF684802
:10067000006800F4003000900198401C0190009840
:1006800018B90198B0F5A06FF1D16148006810F475
:10069000003F02D00120009001E00020009000986F
:1006A000012842D15B48006840F0100059490860B9
:1006B0000846006820F0030008600846006840F023
:1006C0000200086052484068514948600846406846
:1006D00048600846406840F48060486008464068CA
:1006E00020F47C1048600846406840F4E8104860F8
:1006F0000846006840F08070086000BF4448006809
:1007000010F0007FFAD04248406820F003004049D2
:1007100048600846406840F00200486000BF3C481E
:10072000406800F00C000828F9D10CBD10B5FFF7A7
:1007300093FF10BD10B53648006840F00100344901
:100740000860084640683449084031494860084616
:100750000068324908402E4908600846006820F4C5
:10076000802008600846406820F4FE0048604FF48E
:100770001F008860FFF7DAFF4FF00060284908602B
:1007800010BD10B5002100200022214B5B6803F052
:100790000C0121B1042906D0082928D107E0214BFA
:1007A000214C236027E01F4B1F4C236023E0184B94
:1007B0005B6803F47010164B5B6803F4803202230D
:1007C00003EB904022B9194B4343174C23600DE0D3
:1007D0000F4B5B6813F4003F04D0144B4343124C9F
:1007E000236003E00F4B43430F4C236003E00D4BAA
:1007F0000D4C236000BF00BF054B5B68C3F30313C0
:100800000B4CE15C084B1B68CB40074C236010BDD0
:1008100000100240002002400000FFF8FFFFF6FE3B
:1008200008ED00E000127A001C00002000093D00E5
:100830002000002008B50121442002F03DFF1C20CB
:10084000ADF8000048208DF803006946354802F0F5
:100850007DFC0120ADF8000028208DF803006946DA
:10086000314802F073FC08BD10B5044614B10120F4
:100870002E4908702D480078002837D010212948CB
:1008800002F0F5FC78B10821264802F0F0FC50B1E6
:100890000421244802F0EBFC28B10121224802F097
:1008A000E6FC012822D10A2002F0A0FA00201F490C
:1008B000087010211B4802F0DAFC08B9012010BDB5
:1008C0000821184802F0D3FC08B90220F7E70421F8
:1008D000144802F0CCFC08B90320F0E701211248CB
:1008E00002F0C5FC01281BD10420E8E710210D48C7
:1008F00002F0BDFC012813D108210A4802F0B7FC20
:1009000001280DD10421074802F0B1FC012807D1CC
:100910000121054802F0ABFC10B901200349087021
:100920000020CCE700180140000801403000002002
:10093000F84908807047F749891C08807047F548D6
:10094000801C00887047F34A1080921C1180704709
:1009500010B504462046FFF7EBFF052002F023FA0E
:10096000FFF7EDFF10BDEC48C079EA4908807047F9
:10097000E849891C0880704730B5014601F01F0422
:10098000C1F34513CA0AE50205EB43151544A8B2A5
:1009900030BD00BF0100A0F10102D0B2FAD1704712
:1009A00010B503460C46DC488088A0F51341413958
:1009B00005D0D9488088A0F5D041043914D1D64952
:1009C000087AFFF7B5FF1812FFF7B5FFD8B2FFF7A7
:1009D000B2FFD149487AFFF7ABFF2012FFF7ABFF18
:1009E000E0B2FFF7A8FF12E0CB488079012804D1DC
:1009F000C9480088401EC01A83B2C749087A194600
:100A0000FFF7A1FFC449487A2146FFF79CFF10BDBC
:100A10002DE9F04105460E4600240027A046BE48B9
:100A20000088A84203DDBC484088B04202DC0020B8
:100A3000BDE8F08131462846FFF7B2FFB64880880E
:100A4000A0F51341413905D0B3488088A0F5D041C5
:100A5000043903D12E20FFF76BFF02E02220FFF7BD
:100A600067FFAD488088A0F51341203902D10220EC
:100A7000FFF78FFFA748801C008800B100240220E8
:100A8000FFF787FFA348801C0488A3488088A0F54F
:100A9000134141390CD10220FFF77BFF9D48801C98
:100AA000B0F80080E7B24FF6FF7000EA072708E0D1
:100AB00099488088A0F5D041043902D19548801C1E
:100AC000048895488088A0F51341253917D09248AD
:100AD0008088A0F58A41353911D08F488088A0F5EB
:100AE0008A4131390BD08C488088A0F50941893979
:100AF00005D089488088A0F53541053901D12046C7
:100B000096E785488088A0F51341413907D1E01266
:100B1000C002B91240EA411040EAE82088E72046C6
:100B2000FFF72AFF84E700B57B488088A0F51341D2
:100B3000413905D078488088A0F5D041043903D1E7
:100B40002920FFF7F5FE04E040F273110720FFF7BC
:100B5000FAFE00BD00B570488088A0F51341413908
:100B600005D06D488088A0F5D041043903D12820F4
:100B7000FFF7DEFE03E000210720FFF7E4FE00BDE3
:100B8000F0B50546002400276348807901281ED16E
:100B900061488088A0F5D041043918D0082D15D2BD
:100BA000DFE805F00406080A0C0E101206250DE019
:100BB00007250BE0042509E0052507E0012505E0F0
:100BC000002503E0032501E0022500BF00BF5248D5
:100BD0008088A0F51341413905D04F488088A0F5A1
:100BE000D04104397CD1082D1CD2DFE805F0040681
:100BF000090C0F12151800BF14E044F0800411E036
:100C000044F040040EE044F0C0040BE044F0200443
:100C100008E044F0600405E044F0A00402E044F081
:100C2000E00400BF00BF362744F008043A4880883B
:100C3000A0F5D041043901D144F0020421463846E0
:100C4000FFF781FE14F0200F0DD0334800883249A1
:100C50004988884214DA3048068840882E4908803E
:100C6000084646800CE02C4800882B494988884279
:100C700006DD2948068840882749088008464680BE
:100C80002549087AFFF754FE0020FFF754FE0020A4
:100C9000FFF751FE20490988491EC1F30F20FFF7D5
:100CA0004AFE1D490978491EC8B2FFF744FE1A4999
:100CB000487AFFF73DFE0020FFF73DFE0020FFF7DA
:100CC0003AFE15494988491EC1F30F20FFF733FE4C
:100CD00011498978491EC8B2FFF72DFE37E0FFE7BA
:100CE000082D21D2DFE805F004070A0D0F121A1DA6
:100CF00044F0300418E044F0100415E044F02004FF
:100D000012E000BF10E044F038040DE044F0280485
:100D10000AE00000FE07006C2C07002044F01804D5
:100D200002E044F0080400BF00BFFE488088A0F540
:100D30000941893904D1112746F24000044302E0F9
:100D4000032744F4805421463846FFF7FCFDF0BDEC
:100D500030B504460D4629462046FFF721FEFFF731
:100D600002FEF1480088F149088030BD30B50346E5
:100D70000C461546EB488088A0F51341413905D053
:100D8000E8488088A0F5D041043914D1E549087AB3
:100D9000FFF7CEFD1812FFF7CEFDD8B2FFF7CBFD5F
:100DA000E049487AFFF7C4FD2012FFF7C4FDE0B226
:100DB000FFF7C1FD12E0DB488079012804D1D94852
:100DC0000088401EC01A83B2D649087A1946FFF738
:100DD000BAFDD449487A2146FFF7B5FDD148C0791C
:100DE000D249891E0880881C058030BD10B5044694
:100DF000002C3DD1CB498871F02008804FF4A070C1
:100E0000488008468088A0F51341413905D0C5487F
:100E10008088A0F5D041043914D12C20C149C87173
:100E20002A2008722B20487208468088A0F5D041FD
:100E300004394ED14FF4A070BA4908804FF4F070D5
:100E4000488046E0B7488088A0F50941893907D134
:100E50002220B449C8714E2008724F20487238E0F1
:100E60002220B049C871202008722120487230E049
:100E7000AC488088A0F5D04104392AD00120A94986
:100E800088714FF4A0700880F02048800846808860
:100E9000A0F51341413907D12C20A249C8712A205D
:100EA00008722B20487214E09E488088A0F5094102
:100EB000893907D122209B49C8714F2008724E20E2
:100EC000487206E022209749C8712120087220202C
:100ED00048720020FFF754FE10BD70B5044600268E
:100EE000904805884088454300210846FFF758FD93
:100EF000FFF739FD00BF02E08C480480761CAE424B
:100F0000FAD370BD00B59FB00121080202F0C7FB03
:100F1000012140F2691002F0CFFB0120ADF878000A
:100F200010208DF87B0003208DF87A001EA98048E0
:100F300002F00CF94CF23370ADF8780018208DF8FF
:100F40007B0003208DF87A001EA97A4802F0FEF893
:100F50004FF68070ADF8780018208DF87B000320E4
:100F60008DF87A001EA9744802F0F0F841F20100F1
:100F7000ADF8780018208DF87B0003208DF87A00FA
:100F80001EA96E4802F0E2F80120089000200990A6
:100F90000F200A9000200B900C900D900E90019065
:100FA0000290032003900020049005900690079083
:100FB00006200F9000201090119010201290002019
:100FC000139015901490169017904FF4805018902D
:100FD000002019904FF480401A9000201B9008A820
:100FE0001C9001A81D900FA802F021FE01210620EF
:100FF00002F07EFF322001F0F9FE01210020FFF710
:10100000A2FC322001F0F2FE0020FFF7A1FC4549CE
:10101000888008468088FF280ADB08468088A0F57B
:101020007F41FF3904D03F488088B0F5134F4BD142
:10103000D320FFF77DFCFFF782FCFFF780FCFFF772
:101040007EFC38498880084680884FF6FF7101EAA7
:10105000002034498880FFF772FC324989880843B0
:101060003049888008468088A0F5134141391BD05B
:10107000BF20FFF75DFCFFF762FCFFF760FCFFF7A6
:101080005EFCFFF75CFC27498880084680884FF6A5
:10109000FF7101EA002023498880FFF750FC2149B5
:1010A000898808431F4988801E488088A0F513411D
:1010B000413909D01B488088A0F5D041043903D0BC
:1010C00049F2413017498880164881881CA004F0F5
:1010D000C3F814488088A0F5134141397ED1CF2050
:1010E000FFF726FC0020FFF726FCC120FFF723FCBA
:1010F0003020FFF720FCED20FFF71AFC6420FFF7FB
:101100001AFC0320FFF717FC1220FFF714FC8120C4
:10111000FFF711FCE820FFF70BFC8520FFF70BFC25
:10112000102015E02C070020320000200008006C81
:10113000000C014000140140001801400020014053
:10114000204C43442049443A25780D0A0000000011
:10115000FFF7F1FB7A20FFF7EEFBCB20FFF7E8FB70
:101160003920FFF7E8FB2C20FFF7E5FB0020FFF715
:10117000E2FB3420FFF7DFFB0220FFF7DCFBF72068
:10118000FFF7D6FB2020FFF7D6FBEA20FFF7D0FBC6
:101190000020FFF7D0FB0020FFF7CDFBC020FFF7BA
:1011A000C7FB1B20FFF7C7FBC120FFF7C1FB0120D6
:1011B000FFF7C1FBC520FFF7BBFB3020FFF7BBFBF0
:1011C0003020FFF7B8FBC720FFF7B2FBB720FFF7CF
:1011D000B2FB3620FFF7ACFB482000E0AEE0FFF7A3
:1011E000AAFB3A20FFF7A4FB5520FFF7A4FBB12090
:1011F000FFF79EFB0020FFF79EFB1A20FFF79BFBEB
:10120000B620FFF795FB0A20FFF795FBA220FFF71A
:1012100092FBF220FFF78CFB0020FFF78CFB2620CF
:10122000FFF786FB0120FFF786FBE020FFF780FB3E
:101230000F20FFF780FB2A20FFF77DFB2820FFF718
:101240007AFB0820FFF777FB0E20FFF774FB0820DE
:10125000FFF771FB5420FFF76EFBA920FFF76BFB34
:101260004320FFF768FB0A20FFF765FB0F20FFF71D
:1012700062FB0020FFF75FFB0020FFF75CFB002014
:10128000FFF759FB0020FFF756FBE120FFF750FB6B
:101290000020FFF750FB1520FFF74DFB1720FFF74D
:1012A0004AFB0720FFF747FB1120FFF744FB06200E
:1012B000FFF741FB2B20FFF73EFB5620FFF73BFBE0
:1012C0003C20FFF738FB0520FFF735FB1020FFF728
:1012D00032FB0F20FFF72FFB3F20FFF72CFB3F20B7
:1012E000FFF729FB0F20FFF726FB2B20FFF720FB42
:1012F0000020FFF720FB0020FFF71DFB0120FFF778
:101300001AFB3F20FFF717FB2A20FFF711FB0020F5
:10131000FFF711FB0020FFF70EFB0020FFF70BFB90
:10132000EF20FFF708FB1120FFF702FB782001F008
:101330005DFD2920FFF7FCFA01F00EBAFE48808817
:10134000A0F5D04104397CD11120FFF7F1FA142027
:1013500001F04CFDD020FFF7EBFA0720FFF7EBFA86
:101360004220FFF7E8FA1D20FFF7E5FAD120FFF74A
:10137000DFFA0020FFF7DFFA1A20FFF7DCFA092076
:10138000FFF7D9FAD220FFF7D3FA0120FFF7D3FAFB
:101390002220FFF7D0FAC020FFF7CAFA1020FFF78B
:1013A000CAFA3B20FFF7C7FA0020FFF7C4FA022071
:1013B000FFF7C1FA1120FFF7BEFAC520FFF7B8FA10
:1013C0000320FFF7B8FAC820FFF7B2FA0020FFF7B2
:1013D000B2FA2520FFF7AFFA2120FFF7ACFA05207B
:1013E000FFF7A9FA0020FFF7A6FA0A20FFF7A3FAF1
:1013F0006520FFF7A0FA2520FFF79DFA7720FFF779
:101400009AFA5020FFF797FA0F20FFF794FA00207E
:10141000FFF791FAF820FFF78BFA0120FFF78BFA1C
:10142000FE20FFF785FA0020FFF785FA0220FFF77C
:1014300082FA2020FFF77CFA3620FFF779FA08209D
:1014400000E02CE0FFF777FA3A20FFF771FA552019
:10145000FFF771FA2B20FFF76BFA0020FFF76BFA0A
:101460000020FFF768FA0120FFF765FA3F20FFF739
:1014700062FA2A20FFF75CFA0020FFF75CFA0020EE
:10148000FFF759FA0120FFF756FADF20FFF753FA6A
:10149000782001F0ABFC2920FFF74AFA4CE7A64878
:1014A0008088A0F5134125397ED147F6F001E5206B
:1014B000FFF749FA4FF480710120FFF744FA4FF427
:1014C000E0610220FFF73FFA41F230010320FFF70D
:1014D0003AFA00210420FFF736FA40F202210820F0
:1014E000FFF731FA00210920FFF72DFA00210A2029
:1014F000FFF729FA00210C20FFF725FA00210D2023
:10150000FFF721FA00210F20FFF71DFA002110201C
:10151000FFF719FA07211120FFF715FA0021122011
:10152000FFF711FA00211320FFF70DFA0021072021
:10153000FFF709FA41F290611020FFF704FA40F238
:1015400027211120FFF7FFF99D211220FFF7FBF95A
:101550004FF4C8511320FFF7F6F925212920FFF792
:10156000F2F90D212B20FFF7EEF907213020FFF7CC
:10157000EAF940F203313120FFF7E5F90321322087
:10158000FFF7E1F940F206213520FFF7DCF90821E9
:101590003620FFF7D8F940F206413720FFF7D3F99C
:1015A0004FF44171382000E057E0FFF7CCF90721F4
:1015B0003920FFF7C8F940F202613C20FFF7C3F978
:1015C00008213D20FFF7BFF900215020FFF7BBF9AC
:1015D000EF215120FFF7B7F900215220FFF7B3F9AF
:1015E00040F23F115320FFF7AEF94FF4274160203E
:1015F000FFF7A9F901216120FFF7A5F900216A2071
:10160000FFF7A1F900218020FFF79DF9002181203B
:10161000FFF799F900218220FFF795F90021832037
:10162000FFF791F900218420FFF78DF90021852033
:10163000FFF789F910219020FFF785F94FF4C06179
:101640009220FFF780F940F233110720FFF77BF972
:1016500022210020FFF777F96EE637488088A0F551
:10166000134128396AD141F28F01EC20FFF76BF961
:1016700041F23421EF20FFF766F94FF48071012029
:10168000FFF761F94FF4E0610220FFF75CF941F2E6
:1016900030010320FFF757F900210420FFF753F929
:1016A00040F202210820FFF74EF900210920FFF740
:1016B0004AF900210A20FFF746F901210C20FFF723
:1016C00042F900210D20FFF73EF900210F20FFF71E
:1016D0003AF900211020FFF736F907211120FFF712
:1016E00032F900211220FFF72EF900211320FFF715
:1016F0002AF901210720FFF726F9322001F076FBB5
:1017000041F290411020FFF71EF940F227211120ED
:10171000FFF719F9322001F069FB8A211220FFF747
:1017200012F9322001F062FB4FF4D0511320FFF781
:101730000AF90621292002E02C0700208AE0FFF7A1
:1017400002F90D212B20FFF7FEF8322001F04EFBAD
:1017500000212020FFF7F7F800212120FFF7F3F800
:10176000322001F043FB00213020FFF7ECF840F27B
:1017700004613120FFF7E7F840F205313220FFF72E
:10178000E2F800213520FFF7DEF840F60941362067
:10179000FFF7D9F84FF401713720FFF7D4F840F282
:1017A00001313820FFF7CFF840F207713920FFF7F9
:1017B000CAF800213C20FFF7C6F840F60A213D2078
:1017C000FFF7C1F8322001F011FB00215020FFF794
:1017D000BAF8EF215120FFF7B6F800215220FFF7A9
:1017E000B2F840F23F115320FFF7ADF84FF4274114
:1017F0006020FFF7A8F801216120FFF7A4F800217D
:101800006A20FFF7A0F800218020FFF79CF8002154
:101810008120FFF798F800218220FFF794F800213B
:101820008320FFF790F800218420FFF78CF8002137
:101830008520FFF788F810219020FFF784F84FF4F7
:10184000C0619220FFF77FF840F233110720FFF7C5
:101850007AF871E5FE488088A0F5134120397DD1E2
:101860000846FFF770F84FF480710120FFF76BF81E
:101870004FF4E0610220FFF766F841F230010320E7
:10188000FFF761F800210420FFF75DF840F2022124
:101890000820FFF758F800210920FFF754F800212D
:1018A0000A20FFF750F801210C20FFF74CF8002127
:1018B0000D20FFF748F800210F20FFF744F83220F1
:1018C00001F094FA40F201110720FFF73CF83220B2
:1018D00001F08CFA4FF486511020FFF734F80721FD
:1018E0001120FFF730F84FF488711220FFF72BF822
:1018F0004FF430611320FFF726F800212920FFF76D
:1019000022F844F210012B20FFF71DF8002150208F
:10191000FFF719F8EF215120FFF715F800215220A9
:10192000FFF711F840F23F115320FFF70CF84FF486
:101930001C516020FFF707F801216120FFF703F831
:1019400000216A20FEF7FFFF00218020FEF7FBFF49
:1019500000218120FEF7F7FF002100E02DE082202A
:10196000FEF7F1FF00218320FEF7EDFF0021842028
:10197000FEF7E9FF00218520FEF7E5FF102190200A
:10198000FEF7E1FF00219220FEF7DDFF0121932009
:10199000FEF7D9FF4FF488719520FEF7D4FF0021A0
:1019A0009720FEF7D0FF00219820FEF7CCFF40F2F1
:1019B00073110720FEF7C7FFBEE4A5488088A0F595
:1019C000134131397DD141F21401E720FEF7BBFF0D
:1019D0004FF480710120FEF7B6FF4FF40071022032
:1019E000FEF7B1FF41F238010320FEF7ACFF40F2F1
:1019F00002210820FEF7A7FF00210920FEF7A3FF20
:101A000000210A20FEF79FFF00210C20FEF79BFF1C
:101A100000210D20FEF797FF00210F20FEF793FF16
:101A200000211020FEF78FFF07211120FEF78BFF0A
:101A300000211220FEF787FF00211320FEF783FF0D
:101A4000C82001F0D3F941F290611020FEF77BFF2E
:101A500040F227211120FEF776FF322001F0C6F96F
:101A60000C211220FEF76FFF322001F0BFF94FF476
:101A700000611320FEF767FF11212920FEF763FFA5
:101A80000B212B20FEF75FFF322001F0AFF9002180
:101A90002020FEF758FF40F23F112120FEF753FFB0
:101AA00000213020FEF74FFF4FF483713120FEF705
:101AB0004AFF00213220FEF746FF4FF40171352026
:101AC00000E064E0FEF73FFF41F20A613620FEF7D6
:101AD0003AFF40F207713720FEF735FF4FF483716C
:101AE0003820FEF730FF40F207713920FEF72BFF58
:101AF00040F202413C20FEF726FF40F60F413D2018
:101B0000FEF721FF00215020FEF71DFFEF2151209D
:101B1000FEF719FF00215220FEF715FF40F23F119A
:101B20005320FEF710FF4FF41C516020FEF70BFF0F
:101B300001216120FEF707FF00216A20FEF703FF65
:101B400000218020FEF7FFFE00218120FEF7FBFE32
:101B500000218220FEF7F7FE00218320FEF7F3FE2E
:101B600000218420FEF7EFFE00218520FEF7EBFE2A
:101B700010219020FEF7E7FE4FF4C0619220FEF79F
:101B8000E2FE40F233110720FEF7DDFE86E4304826
:101B90008088A0F5A84108397DD14FF480710120DB
:101BA000FEF7D1FE4FF4E0610220FEF7CCFE41F2D9
:101BB00030010320FEF7C7FE00210420FEF7C3FE1C
:101BC00040F207210820FEF7BEFE00210920FEF7A3
:101BD000BAFE00210A20FEF7B6FE00210C20FEF717
:101BE000B2FE00210D20FEF7AEFE00210F20FEF711
:101BF000AAFE142001F0FAF841F2B0611020FEF7BD
:101C0000A2FE01211120FEF79EFE01211720FEF702
:101C10009AFE4FF49C711220FEF795FE4FF400617E
:101C20001320FEF790FE09212920FEF78CFE0921E2
:101C30002A20FEF788FE0021A420FEF784FE002162
:101C40005020FEF780FEEF215120FEF77CFE01E0E0
:101C50002C07002000215220FEF775FE40F23F11B4
:101C60005320FEF770FE4FF41C516020FEF76BFE10
:101C700001216120FEF767FE00216A20FEF763FE66
:101C800000218020FEF75FFE00218120FEF75BFE31
:101C90000021822000E027E0FEF755FE002183208E
:101CA000FEF751FE00218420FEF74DFE0021852025
:101CB000FEF749FE13219020FEF745FE00219220F9
:101CC000FEF741FE03219320FEF73DFE4FF488719D
:101CD0009520FEF738FE40F273110720FEF733FE21
:101CE000322001F083F8B7E4FE488088A0F5A851BF
:101CF00005397DD10720FEF726FE322001F076F867
:101D00004FF48E711220FEF71EFE0121A420FEF773
:101D10001AFE0F210820FEF716FE08210A20FEF702
:101D200012FE08210D20FEF70EFE40F20771302052
:101D3000FEF709FE07213120FEF705FE40F20361A0
:101D40003220FEF700FE4FF4E0613320FEF7FBFD8A
:101D500040F202213420FEF7F6FD02213520FEF785
:101D6000F2FD41F60F713620FEF7EDFD40F20771EE
:101D70003720FEF7E8FD00213820FEF7E4FD0021C2
:101D80003920FEF7E0FD40F207713A20FEF7DBFD57
:101D900000213B20FEF7D7FD07213C20FEF7D3FDB5
:101DA00000213D20FEF7CFFD322001F01FF8012178
:101DB0000720FEF7C8FD01211720FEF7C4FD3220E1
:101DC00001F014F84FF4BD511020FEF7BCFD40F2B5
:101DD00017211120FEF7B7FD4FF48F711220FEF787
:101DE000B2FD4FF470611320FEF7ADFD002100E05D
:101DF00094E02A20FEF7A7FD0A212920FEF7A3FD83
:101E00004FF49F711220FEF79EFD00215020FEF737
:101E10009AFDEF215120FEF796FD00215220FEF79A
:101E200092FD40F23F115320FEF78DFD4FF41C51FF
:101E30006020FEF788FD01216120FEF784FD00216E
:101E40006A20FEF780FD00218020FEF77CFD002146
:101E50008120FEF778FD00218220FEF774FD00212D
:101E60008320FEF770FD00218420FEF76CFD002129
:101E70008520FEF768FD13219020FEF764FD4FF4E6
:101E800040719220FEF75FFD05219320FEF75BFD78
:101E900000219520FEF757FD00219720FEF753FD06
:101EA00000219820FEF74FFD4FF480710120FEF7CE
:101EB0004AFD4FF4E0610220FEF745FD41F2380192
:101EC0000320FEF740FD00210420FEF73CFD002129
:101ED0000C20FEF738FD00210F20FEF734FD002115
:101EE0002020FEF730FD00212120FEF72CFD2121CE
:101EF0000720FEF728FD142000F078FF612107205D
:101F0000FEF721FD142000F071FF40F2731107204D
:101F1000FEF719FD142000F069FF9AE471488088EB
:101F2000A0F5354105397DD10846FEF70CFD0021AD
:101F30000846FEF708FD00210846FEF704FD0021D3
:101F40000846FEF700FD0121A420FEF7FCFC14204A
:101F500000F04CFF4FF41C516020FEF7F4FC40F2FF
:101F600002210820FEF7EFFC4FF405713020FEF748
:101F7000EAFC43F215713120FEF7E5FC40F2046102
:101F80003220FEF7E0FC40F616613320FEF7DBFC62
:101F900042F211213420FEF7D6FC4FF4A85135202F
:101FA000FEF7D1FC48F207513620FEF7CCFC41F297
:101FB00007413720FEF7C7FC41F203413820FEF706
:101FC000C2FC20213920FEF7BEFC1A219020FEF72A
:101FD000BAFC00211020FEF7B6FC07211120FEF705
:101FE000B2FC00211220FEF7AEFC00211320FEF708
:101FF000AAFC142000F0FAFE4FF4E6611020FEF770
:10200000A2FC40F237111120FEF79DFC142000F0D5
:10201000EDFE4FF4DC711220FEF795FC142000F069
:10202000E5FE00E086E04FF470611320FEF78BFCC4
:1020300080212A20FEF787FC48212920FEF783FC17
:10204000142000F0D3FE4FF480710120FEF77BFCDA
:102050004FF4E0610220FEF776FC41F238010320E4
:10206000FEF771FC40F202210820FEF76CFC002113
:102070000A20FEF768FC00210C20FEF764FC00211A
:102080000D20FEF760FC30210E20FEF75CFC0021E5
:102090005020FEF758FCEF215120FEF754FC0021A0
:1020A0005220FEF750FC40F23F115320FEF74BFC4C
:1020B0004FF41C516020FEF746FC01216120FEF721
:1020C00042FC00216A20FEF73EFC11219020FEF721
:1020D0003AFC4FF4C0619220FEF735FC40F2024119
:1020E000932001E02C070020FEF72DFC0221942014
:1020F000FEF729FC142000F079FE01210720FEF7ED
:1021000022FC142000F072FE61210720FEF71BFC68
:1021100040F273110720FEF716FC00212020FEF785
:1021200012FC00212120FEF70EFC22210020FEF7E8
:102130000AFC11E3FE488088A0F5454105397DD1B0
:102140000846FEF700FC00210846FEF7FCFB1420C1
:1021500000F04CFE00210846FEF7F5FB0021084682
:10216000FEF7F1FB00210846FEF7EDFB00210846D3
:10217000FEF7E9FB0121A420FEF7E5FB142000F0A7
:1021800035FE4FF41C516020FEF7DDFB40F60601E2
:102190000820FEF7D8FB40F203713020FEF7D3FB96
:1021A00001213120FEF7CFFB04213220FEF7CBFBCB
:1021B0004FF481713320FEF7C6FB4FF44071342099
:1021C000FEF7C1FB40F203113520FEF7BCFB1F21D7
:1021D0003620FEF7B8FB40F203713720FEF7B3FB61
:1021E00001213820FEF7AFFB04213920FEF7ABFBBD
:1021F00015219020FEF7A7FB4FF482611020FEF717
:10220000A2FB40F247211120FEF79DFB4FF4DE7147
:102210001220FEF798FB4FF460611320FEF793FB4A
:10222000782000F0E3FD4FF480710120FEF78BFB76
:102230004FF400710220FEF786FB00E050E041F20F
:1022400030010320FEF77FFB08210A20FEF77BFB0D
:1022500000210C20FEF777FB20210E20FEF773FBF8
:1022600000210F20FEF76FFB00212020FEF76BFB03
:1022700000212120FEF767FB3D212A20FEF763FBAA
:10228000142000F0B3FD2D212920FEF75CFB002176
:102290005020FEF758FB4DF2EF015120FEF753FBA3
:1022A00000215220FEF74FFB40F23F115320FEF772
:1022B0004AFB00216120FEF746FB00216A20FEF761
:1022C00042FB4FF440719220FEF73DFB0521932025
:1022D000FEF739FB4FF480710720FEF734FB3BE239
:1022E00093488088A0F5094189397DD101210020DA
:1022F000FEF729FB4AF6A4010320FEF724FB002188
:102300000C20FEF720FB40F60C010D20FEF71BFB16
:102310004FF42C510E20FEF716FBB0211E20FEF7C5
:1023200012FB42F63F310120FEF70DFB4FF4C06176
:102330000220FEF708FB00211020FEF704FB46F206
:1023400078011120FEF7FFFA00210520FEF7FBFAC5
:1023500000210620FEF7F7FA4EF61C711620FEF754
:10236000F2FA03211720FEF7EEFA40F2332107209C
:10237000FEF7E9FA00210B20FEF7E5FA00210F2015
:10238000FEF7E1FA00214120FEF7DDFA00214220AC
:10239000FEF7D9FA00214820FEF7D5FA40F23F11A6
:1023A0004920FEF7D0FA00214A20FEF7CCFA00219E
:1023B0004B20FEF7C8FA4FF46F414420FEF7C3FAF2
:1023C00000214520FEF7BFFA40F23F114620FEF7FC
:1023D000BAFA40F207713020FEF7B5FA4FF40171F6
:1023E0003120FEF7B0FA00E03DE04FF401713220F9
:1023F000FEF7A9FA40F202513320FEF7A4FA40F2A8
:1024000007513420FEF79FFA4FF401713520FEF793
:102410009AFA4FF401713620FEF795FA40F2025114
:102420003720FEF790FA40F202313A20FEF78BFA9D
:1024300040F202313B20FEF786FA00212320FEF70E
:1024400082FA00212420FEF77EFA4FF40041252075
:10245000FEF779FA00214F20FEF775FA00214E2091
:10246000FEF771FA78E132488088A0F58A41313967
:102470005DD101210020FEF766FA0A2000F0B6FCCB
:1024800041F228611020FEF75EFA0E211220FEF7BD
:102490005AFA40F639211320FEF755FA0A2000F0C7
:1024A000A5FC40211120FEF74EFA50211520FEF721
:1024B0004AFA0A2000F09AFC1E211220FEF743FA85
:1024C0000A2000F093FC4FF4B1511020FEF73BFAC4
:1024D00042F639211320FEF736FA0A2000F086FC76
:1024E0004FF480710120FEF72EFA4FF44071022064
:1024F000FEF729FA41F238010320FEF724FA40F2F0
:1025000002210820FEF71FFA08210A20FEF71BFA15
:1025100000213020FEF717FA40F202413120FEF789
:1025200012FA4FF483713220FEF70DFA02E05EE0FA
:102530002C07002040F203513320FEF704FA4FF439
:1025400082713420FEF7FFF940F201313520FEF7A9
:10255000FAF940F207713620FEF7F5F940F205313D
:102560003720FEF7F0F94FF402713820FEF7EBF94F
:1025700040F60B713920FEF7E6F902214120FEF703
:10258000E2F94FF41C516020FEF7DDF901216120D2
:10259000FEF7D9F94FF404719020FEF7D4F94FF407
:1025A00085719220FEF7CFF904219320FEF7CBF935
:1025B0004FF48071A020FEF7C6F901210720FEF735
:1025C000C2F921210720FEF7BEF923210720FEF7DB
:1025D000BAF933210720FEF7B6F940F2331107208C
:1025E000FEF7B1F90021A020FEF7ADF9B4E0FB48F9
:1025F0008088A0F58A413539F8D130211520FEF7C1
:10260000A2F910219A20FEF79EF920211120FEF751
:102610009AF943F228411020FEF795F90221122081
:10262000FEF791F941F238011320FEF78CF92820CA
:1026300000F0DCFB12210846FEF785F9282000F0A7
:10264000D5FB43F220411020FEF77DF943F238011B
:102650001320FEF778F9462000F0C8FB0021302057
:10266000FEF771F940F202413120FEF76CF940F2B9
:1026700007313220FEF767F94FF441713320FEF73E
:1026800062F904213420FEF75EF940F20141352061
:10269000FEF759F940F207713620FEF754F940F27F
:1026A00005313720FEF74FF94FF4C2613820FEF7AD
:1026B0004AF94FF4C2613920FEF745F94FF48071B1
:1026C0000120FEF740F94FF440710220FEF73BF97C
:1026D00041F230010320FEF736F940F608010820E8
:1026E000FEF731F908210A20FEF72DF94FF41C51AD
:1026F0006020FEF728F901216120FEF724F94FF44C
:102700009F719020FEF71FF94FF480719220FEF721
:102710001AF94FF480719320FEF715F94FF44051E8
:10272000A020FEF710F91021A320FEF70CF90121DB
:102730000720FEF708F921210720FEF704F92321DD
:102740000720FEF700F933210720FEF7FCF840F2DE
:1027500033110720FEF7F7F80020FEF747FB0120B2
:102760009F4908604FF6FF70FEF7B7FB1FB000BD32
:102770002DE9F04F05460E4617469846DDF824A091
:102780004FF0000B781B401C1FFA80FB344613E00F
:1027900021462846FEF704F9FEF7E5F84FF0000958
:1027A00006E05046FEF7C7F809F101001FFA80F96C
:1027B000D945F6DB601C84B24445E9DDBDE8F08F05
:1027C0002DE9F84F07460D4690469946DDF828B0AA
:1027D000A8EB0700401C80B20090A9EB0500401C4C
:1027E0001FFA80FA002415E0281981B23846FEF756
:1027F000D7F8FEF7B8F8002607E004FB0A603BF8BC
:10280000100078490880701C86B200988642F4DB7C
:10281000601C84B25445E7DBBDE8F88F2DE9FF4F1B
:1028200084B081468A460020039002900698A0EB6F
:1028300009050798A0EB0A06CDF80490CDF800A092
:10284000002D01DD012705E00DB9002702E04FF062
:10285000FF376D42002E02DD4FF0010806E016B989
:102860004FF0000802E04FF0FF387642B54201DD3C
:102870002C4600E034464FF0000B21E0009A91B264
:10288000019A90B2FEF764FA0398284403900298E4
:10289000304402900398A04205DD0398001B03908A
:1028A0000198384401900298A04205DD0298001B6F
:1028B00002900098404400900BF101001FFA80FB49
:1028C000601C8345DADD08B0BDE8F08FF0B5044642
:1028D0000D4616461F462B46324629462046FFF730
:1028E0009DFF3B46224629462046FFF797FF3B4681
:1028F000324639462046FFF791FF3B46324629468D
:102900003046FFF78BFFF0BD2DE9F04306460F463A
:102910009046002445460320A0EB48093CE07A1B82
:1029200091B2321990B2FEF713FA3A1B91B27219B2
:1029300090B2FEF70DFA3A1991B2721990B2FEF701
:1029400007FA7A1991B2321990B2FEF701FA7A19A0
:1029500091B2321B90B2FEF7FBF93A1991B2721B99
:1029600090B2FEF7F5F97A1B91B2321B90B2FEF7E6
:10297000EFF93A1B91B2721B90B2FEF7E9F9641CB1
:10298000B9F1000F03DAA000801D814404E0601B50
:1029900080000A3081446D1EAC42C0DDBDE8F0838A
:1029A0002DE9F84F05460F4690461E4600970E4803
:1029B000B0F80090A8F1200000F0FF080A98002865
:1029C00059D1002454E00C2E12D108EB48000749DD
:1029D00001EB800010F804A00FE000002C0700209D
:1029E000808121420008006C32000020666F0008E0
:1029F000CE4800EB081010F804A04FF0000B31E0B7
:102A00001AF0800F03D0CA48A0F8009003E0C9482C
:102A10000088C749088039462846FEF799F94FEAE9
:102A20004A604FEA106A781C87B2C3480088A842FF
:102A300004DCBF48A0F80090BDE8F88F0098381A71
:102A4000B0420BD1009F681C85B2BB480088A842E9
:102A500003DCB748A0F80090EEE706E00BF10100B8
:102A600000F0FF0BBBF1080FCADB00BF601CC4B253
:102A7000B442A8DB44E0002440E00C2E07D108EB70
:102A80004800AE4901EB800010F804A004E0A7481C
:102A900000EB081010F804A04FF0000B28E01AF02B
:102AA000800F03D039462846FEF752F94FEA4A60B4
:102AB0004FEA106A781C87B29F484088A84203DC1E
:102AC0009B48A0F80090B7E70098381AB0420BD1A5
:102AD000009F681C85B298480088A84203DC94488F
:102AE000A0F80090A8E706E00BF1010000F0FF0B52
:102AF000BBF1080FD3DB00BF601CC4B2B442BCDB27
:102B00008B48A0F8009000BF96E710B50246012060
:102B100000E050430B00A1F10104E1B2F9D110BD76
:102B20002DE9FF4F81B0074691461E460E9D4FF09E
:102B3000000A002439E0301B401EC1B20A20FFF712
:102B4000E4FFB9FBF0F00A21B0FBF1F201FB12083F
:102B5000BAF1000F16D1701EA04213DDB8F1000FBC
:102B60000ED10020AB4605EBDB71491001FB04716F
:102B7000009088B22B4620220299FFF711FF12E045
:102B80004FF0010A0020AB4605EBDB71491001FB59
:102B90000471009088B208F13001CAB22B46029944
:102BA000FFF7FEFE00BF601CC4B2B442C3DB05B039
:102BB000BDE8F08F2DE9FF4F82B0064692461F46D2
:102BC000DDE90F480020019000254DE0781B401EF4
:102BD000C1B20A20FFF799FFBAFBF0F00A21B0FB5F
:102BE000F1F201FB1209019850BB781EA84227DDC3
:102BF000B9F1000F22D118F0800F0FD008F00100BA
:102C0000A34604EBDB71491001FB0561009088B21B
:102C1000234630220399FFF7C3FE0EE008F00100BF
:102C2000A34604EBDB71491001FB0561009088B2FB
:102C3000234620220399FFF7B3FE13E00120019001
:102C400008F00100A34604EBDB71491001FB0561AC
:102C5000009088B209F13001CAB223460399FFF708
:102C60009FFE00BF681CC5B2BD42AFDB06B0BDE829
:102C7000F08F2DE9F84704460D4690469946DDE968
:102C8000096704F0FF0A08EB04001FFA80F809EB5B
:102C900005001FFA80F916E0444502DB5446A819E6
:102CA00085B24D4500DB14E0002000903A783346B1
:102CB00029462046FFF774FE304606EBD07104EB40
:102CC00061018CB27F1C38787E2802DC387820289D
:102CD000E2DA00BFBDE8F887F0B5034600201EE049
:102CE0000E5CF71706EB17773F1107F130050E5C06
:102CF000F71706EB17773F11A6EB07173037FCB233
:102D0000392D01DDEE1DF5B2392C01DDE61DF4B2E1
:102D100003F81050012606EB40069C55401C9042DB
:102D2000DEDB002603F81260F0BD0000DA73000855
:102D300032000020340000202C070020666F0008BD
:102D400008B50121402000F0B7FC6020ADF800007C
:102D500010208DF8030003208DF802006946044816
:102D600000F0F4F96021024800F09BFA08BD000071
:102D70000018014010B56FF0040000F069F9384800
:102D800000683849B0FBF1F0374908700846007810
:102D900000EB4001C1EBC0104FF6FF7101EAC0002B
:102DA0003249088010BD01462F4A12784A434FF03D
:102DB000E0235A6100229A611A46126942F0010228
:102DC0001A6100BF4FF0E022106910F0010F02D02D
:102DD00010F4803FF6D04FF0E022126922F0010299
:102DE0004FF0E0231A6100229A61704701461F4AA2
:102DF00012884A434FF0E0235A6100229A611A4632
:102E0000126942F001021A6100BF4FF0E02210691E
:102E100010F0010F02D010F4803FF6D04FF0E02206
:102E2000126922F001024FF0E0231A6100229A6138
:102E30007047002105E0002200E0521C8242FCD3D2
:102E4000491C4FF6FF739942F5D3704730B50446DD
:102E5000642004FB00F52846FFF7EBFF30BD0000BF
:102E60001C00002000127A003600002038000020EC
:102E700010B54FF4A06000F09BF810BD014600BFF4
:102E8000704700BF384A128812F0400FFAD0C2B221
:102E9000354B1B1D1A80704710B586B004460121C2
:102EA00044F2040000F008FC2F4800F06DFC4FF4E1
:102EB0000070ADF8140003208DF8160018208DF86E
:102EC000170005A9294800F041F94FF48060ADF8DA
:102ED000140004208DF8170005A9244800F036F9E5
:102EE00025208DF8000003208DF801008DF80200E8
:102EF00001208DF80300684600F05FF8019400207F
:102F0000ADF80800ADF80A00ADF80C00ADF81000FF
:102F10000C20ADF80E0001A9134800F078FC012246
:102F200040F22551104800F00AFD01210E4800F042
:102F3000FAFC06B010BD70B504460D4640210A48A3
:102F400000F0CCFD00260CE014F8011B064800F050
:102F500057FD00BF4021044800F0C0FD0128F9D111
:102F6000761CAE42F0DB70BD003801400008014025
:102F70000948804709480047FEE7FEE7FEE7FEE70D
:102F8000FEE7FEE7FEE7FEE7FEE7FEE70448054949
:102F9000054A064B7047000035070008310100085C
:102FA0004050002040560020405200204052002057
:102FB00031490143314A1160704770B50021002347
:102FC0000F22C4780CB32D4C246804F4E064C4F5DB
:102FD000E064210AC1F10403CA40447804FA03F111
:102FE0008478144021430901254C0678A1550478C2
:102FF00004F01F050124AC4005786D114FF0E02668
:1030000006EB8505C5F8004109E0047804F01F05CA
:103010000124AC401B4D0678761145F8264070BD62
:10302000194A0A400243154B1B1F1A60704739B1F9
:10303000124A121D12680243104B1B1D1A6006E053
:103040000E4A121D126882430C4B1B1D1A607047FA
:10305000042808D14FF0E021096941F004014FF044
:10306000E022116107E04FF0E021096921F004013D
:103070004FF0E022116170470000FA050CED00E00E
:1030800000E400E080E100E080FFFF1F10B504468F
:10309000CA48844208D10121042000F027FB002106
:1030A000042000F023FB46E0C548844208D10121FA
:1030B000082000F01BFB0021082000F017FB3AE07D
:1030C000C048844208D10121102000F00FFB0021EC
:1030D000102000F00BFB2EE0BB48844208D10121F8
:1030E000202000F003FB0021202000F0FFFA22E066
:1030F000B648844208D10121402000F0F7FA0021AF
:10310000402000F0F3FA16E0B148844208D10121D2
:10311000802000F0EBFA0021802000F0E7FA0AE0BE
:10312000AC48844207D10121801500F0DFFA00216C
:10313000A01500F0DBFA10BD10B50121084600F023
:10314000D5FA0021012000F0D1FA10BD2DE9F0419F
:10315000024600250026002000230024002791F8C5
:1031600003C00CF00F0591F803C01CF0100F03D042
:1031700091F802C04CEA050591F800C0BCF1000FBF
:1031800031D0146800202BE04FF0010C0CFA00F352
:10319000B1F800C00CEA03069E4220D183004FF034
:1031A0000F0C0CFA03F7BC4305FA03FC4CEA0404C9
:1031B00091F803C0BCF1280F06D14FF0010C0CFAB6
:1031C00000FCC2F814C00AE091F803C0BCF1480F3B
:1031D00005D14FF0010C0CFA00FCC2F810C0401CE5
:1031E0000828D1D31460B1F800C0BCF1FF0F34DD62
:1031F000546800202EE000F1080C4FF0010808FA96
:103200000CF3B1F800C00CEA03069E4221D1830002
:103210004FF00F0C0CFA03F7BC4305FA03FC4CEA21
:10322000040491F803C0BCF1280F05D100F1080C8B
:1032300008FA0CF8C2F8148091F803C0BCF1480FEA
:1032400007D100F1080C4FF0010808FA0CF8C2F899
:103250001080401C0828CED35460BDE8F0814FF6A2
:10326000FF710180022181700421C1707047024604
:10327000002093680B4201D0012000E0002070473D
:103280000146886880B2704702460020D3680B422E
:1032900001D0012000E0002070470146C86880B2DC
:1032A000704701617047416170470AB1016100E0F8
:1032B00041617047C16070474FF480320A438261B8
:1032C0008161826182698269704702460020424BB7
:1032D00018684FF68073184040EA021008433E4BCE
:1032E000186070473D49C8617047F0B50A46002331
:1032F00000240021002500F00046B6F1004F02D165
:10330000354EF16901E0344E7168C0F3034583B274
:1033100000F44016B6F5401F08D121F070612E4E22
:10332000766826F070662C4F7E6012E000F48016FE
:10333000B6F5801F06D1032606FA05F4A14341F035
:10334000706106E0460D360103FA06F6B14341F01E
:10335000706122B1460D360103FA06F6314300F0E2
:103360000046B6F1004F02D11B4EF16101E01A4E4A
:103370007160F0BD30B500228B071C0F0F2303FADC
:1033800004F2154B08338C1053F824309343124C3D
:1033900008348D1044F8253023468C1053F824301F
:1033A0008C07240F00FA04F423430B4C08348D10CF
:1033B00044F8253030BD0A490860704700080140D4
:1033C000000C0140001001400014014000180140B1
:1033D000001C01400020014000000140000020428C
:1033E000DC002042DD48006840F00100DB49086055
:1033F00008464068DA490840D849486008460068ED
:10340000D8490840D54908600846006820F4802063
:1034100008600846406820F4FE0048604FF41F0032
:1034200088607047CD49096821F48031CB4A11602A
:103430001146096821F480211160B0F5803F03D066
:10344000B0F5802F0ED106E0C449096841F48031FF
:10345000C24A116007E0C149096841F4A021BF4A8E
:10346000116000E000BF00BF704710B501460022A8
:10347000002300204A11012A02D1B84C236806E03B
:10348000022A02D1B54C236A01E0B44C636A01F010
:103490001F02012494401C4201D0012000E00020C2
:1034A00010BD38B5002000900024002500BF312059
:1034B000FFF7DBFF05460098401C00900098B0F530
:1034C000A06F01D0002DF2D03120FFF7CEFF08B160
:1034D000012400E00024204638BD014600209F4A18
:1034E000106820F0F80040EAC100106070479E4963
:1034F0000860704702460020984B586820F47C1002
:1035000042EA01031843954B586070479649086694
:10351000704701460020914A506820F0030008439C
:10352000506070478D48406800F00C0070470146BD
:1035300000208A4A506820F0F0000843506070472D
:1035400001460020854A506820F4E060084350603E
:10355000704701460020814A506820F4605040EADC
:10356000C1005060704729B17C4A527A02437B4BBC
:103570005A7204E0794A527A8243784B5A72704701
:103580007A490860704701460020744A506820F468
:1035900040400843506070470021754A11706F4ADF
:1035A00082F82010012802D0042808D103E001216C
:1035B0006F4A117004E005216D4A117000E000BFF0
:1035C00000BF70476B49086070476449096A01434E
:1035D000624A11627047674944390860704730B5E4
:1035E00000210022002400235C4D6D6805F00C01D1
:1035F00021B1042905D0082923D105E05E4D0560DD
:1036000022E05D4D05601FE0544D6D6805F47012B9
:10361000524D6D6805F48034022505EB92421CB9C9
:10362000564D554305600BE04C4D6D6815F4003F59
:1036300003D0524D5543056002E04F4D55430560A0
:1036400002E04D4D056000BF00BF444D6D6805F0C0
:10365000F00109094A4D6B5C0568DD4045603F4D4E
:103660006D6805F4E061090A454D6B5C4568DD4015
:1036700085603A4D6D6805F46051C90A404D6B5C38
:103680004568DD40C560354D6D6805F44041890BE6
:103690003C4D6B5CC568B5FBF3F5056130BD29B1E8
:1036A0002E4A526902432D4B5A6104E02B4A52695B
:1036B00082432A4B5A61704729B1284A92690243D2
:1036C000264B9A6104E0254A92698243234B9A6112
:1036D000704729B1214AD2690243204BDA6104E0E4
:1036E0001E4AD26982431D4BDA61704729B11B4AD9
:1036F000D2680243194BDA6004E0184AD268824368
:10370000164BDA60704729B1144A12690243134B11
:103710001A6104E0114A12698243104B1A61704722
:1037200014494039086070470F49C86470470B4915
:10373000C87170470948406A40F080700749486284
:10374000704701460020054A92680A4201D00120D4
:1037500000E0002070470149887270470010024065
:103760000000FFF8FFFFF6FE00004242D800424290
:10377000201002408004424200127A0000093D00FD
:10378000400000205000002010B50446FB48844251
:1037900009D101218803FFF7A9FF00214FF48040E0
:1037A000FFF7A4FF32E0F648844209D10121480422
:1037B000FFF7A9FF00214FF40030FFF7A4FF25E039
:1037C000F048844209D101218804FFF79CFF0021C1
:1037D0004FF48020FFF797FF18E0EB48844209D1AF
:1037E0000121C804FFF78FFF00214FF40020FFF7ED
:1037F0008AFF0BE0E548844208D101210805FFF764
:1038000082FF00214FF48010FFF77DFF10BD2DE9EE
:10381000F04786B005460E460024A24600BFA146EA
:103820000027B08900B100BF2F462C8A4CF6FF70EC
:103830000440F08804432C82AC894EF6F310044017
:10384000B08831890843718908430443AC81AC8A4C
:103850004FF6FF400440B0890443AC8201A8FFF753
:10386000BEFEC648874202D1DDF810A001E0DDF8B7
:103870000CA0A88910F4004F08D00AEBCA0000EB96
:103880000A1031684900B0FBF1F807E00AEBCA0002
:1038900000EB0A1031688900B0FBF1F86420B8FB36
:1038A000F0F004012009642101FB1089A88910F4BB
:1038B000004F08D0322000EBC900B0FBF1F000F05F
:1038C0000700044308E0322000EB09106421B0FB3C
:1038D000F1F000F00F0004432C8106B0BDE8F08742
:1038E0004FF41651016000218180C18001810C21BB
:1038F000418100218181704710B502460020108A65
:103900004FF2FF0318400B884C8823438C882343D5
:10391000CC8823431843108210BD002101804180D0
:103920008180C180704721B1828942F40052828136
:1039300004E082894DF6FF731A4082817047F0B52A
:1039400003460024002600250020A1F510676A3FE9
:1039500000D100BF1846C1F3421401F01F06012731
:1039600007FA06F5012C01D10C3004E0022C01D13C
:10397000103000E014301AB107682F43076002E0EE
:103980000768AF430760F0BD1AB1838A0B43838297
:1039900002E0838A8B4383827047028A4FF6F0737A
:1039A0001A400282028A0A430282704782894FF2D9
:1039B000FF731A40828182890A438281704721B154
:1039C000828942F00202828104E082894FF6FD730F
:1039D0001A4082817047028A4FF6DF731A400282D2
:1039E000028A0A430282704721B1028A42F480426D
:1039F000028204E0028A4BF6FF731A40028270478B
:103A0000C1F308028280704701468888C0F308002D
:103A10007047818941F0010181817047028BD2B2E8
:103A20000283028B42EA012202837047028B02F476
:103A30007F420283028B0A430283704721B1828A4C
:103A400042F02002828204E0828A4FF6DF731A403D
:103A50008282704721B1828A42F01002828204E0A1
:103A6000828A4FF6EF731A408282704721B1828AB0
:103A700042F00802828204E0828A4FF6F7731A400D
:103A80008282704721B1828942F40042828103E040
:103A90008289C2F30E028281704721B1828A42F488
:103AA0000062828204E0828A4FF2FF731A408282AF
:103AB0007047828A4FF6FB731A408282828A0A43D9
:103AC0008282704721B1828A42F00202828204E03F
:103AD000828A4FF6FD731A408282704702460020A8
:103AE000B1F5007F00D100BF13880B4201D0012047
:103AF00000E00020704701F40072B2F5007F00D1B1
:103B000000BFCA430280704770B5024600240023FC
:103B100000250020A1F510666A3E00D100BFC1F368
:103B2000421501F01F03012606FA03F3012D02D10D
:103B30009689334006E0022D02D1168A334001E017
:103B4000968A33400C12012606FA04F41688344093
:103B500013B10CB1012000E0002070BD10B50022AF
:103B60000023A1F510646A3C00D100BF0A120124B1
:103B70009440A3B2DC43048010BD00000038014033
:103B80000044004000480040004C0040005000400D
:103B900030B943F2DB014FF0204242F8201005E03B
:103BA00043F2D2014FF0204242F820106FF07042F1
:103BB000411C4FF0204343F8212011461A4602EBE6
:103BC0008002C2F80411704710280AD118214FF062
:103BD00020421166402151664FF0FC319166D1665A
:103BE00010E01821F84A11604FF040014FF02042D8
:103BF000C2F884104FF0FC31F44A11604FF02042BB
:103C0000C2F88C1070471820F14908604FF000008E
:103C10004FF02041C1F8A4004FF0FC30ED4908609E
:103C200001F10401086001F1040108607047D0E966
:103C300001121143C26811430269114342691143E1
:103C400082691143C2691143026A1143426A1143F6
:103C5000826A1143C26A1143026B11434FF0204341
:103C6000026843F822108168082908D11A460168C1
:103C700052F8211041F04001026843F82210416BD4
:103C80000968426B526841EA0211426B926841EA4C
:103C90000221426B928941EA0241426B128A41EA57
:103CA0000251426B127D41EA0261426B92691143FB
:103CB0000268521C4FF0204343F82210C16AB1F54C
:103CC000804F1AD1816B0968826B526841EA0211F8
:103CD000826B926841EA0221826B128A41EA0251A8
:103CE000826B127D41EA0261826B92691143026824
:103CF00003EB8202C2F8041108E06FF070414FF04C
:103D00002043026803EB8202C2F80411704730B509
:103D1000002100220023446844F0080485682C43F5
:103D2000C5682C4305692C43456944EA45248569E7
:103D300044EA4531C4692468C5696D6844EA0524CC
:103D4000C5692D8944EA0544C5692D7B44EA0562AD
:103D5000046A2468056A6D6844EA0524056A2D89A9
:103D600044EA0544056A2D7B44EA05630468102C87
:103D700005D14FF020442166A266E36607E0924C2D
:103D800021604FF02044C4F88820934C236030BD5C
:103D9000016841F01001426841EA4221826841EA2B
:103DA00042318B4A1160C1680968C268526841EAB1
:103DB0000221C268128941EA0241C268127B41EACB
:103DC0000261844A1160016909680269526841EA26
:103DD00002210269128941EA02410269127B41EA29
:103DE00002617E4A1160416909684269526841EA8C
:103DF00002214269128941EA02414269127B41EA89
:103E000002614FF02042C2F8B010704700210160FB
:103E10000221416000218160C160016141618161D5
:103E2000C16101624FF48051416249008162002109
:103E3000C16201630F21426B1160426B5160FF212F
:103E4000426B91600F21426BD160426B1161426BFA
:103E500051610021426B91610F21826B1160826B75
:103E60005160FF21826B91600F21826BD160826B68
:103E70001161826B51610021826B91617047102149
:103E80000160002141608160C16001614161816127
:103E9000FC21C2691160C2695160C2699160C26946
:103EA000D160026A1160026A5160026A9160026A1E
:103EB000D16070470021016041608160FC21C268CF
:103EC0001160C2685160C2689160C268D1600269C5
:103ED000116002695160026991600269D1604269B2
:103EE000116042695160426991604269D1607047D6
:103EF00051B14FF0204252F8202042F001024FF021
:103F0000204343F8202009E04FF0204252F82020BF
:103F1000334B1A404FF0204343F82020704799B1AB
:103F2000102808D14FF02042126E42F004024FF0E8
:103F300020431A661DE0244A126842F004024FF042
:103F40002043C3F8802014E0102809D14FF020420C
:103F5000126E234BDB1E1A404FF020431A6608E016
:103F6000194A12681F4B02EA03024FF02043C3F8BC
:103F70008020704740B11649096841F004014FF0B4
:103F80002042C2F8A01008E011490968154A01EA68
:103F900002014FF02042C2F8A010704799B11028DA
:103FA00008D14FF02042126E42F040024FF0204301
:103FB0001A662DE0044A126842F040024FF0204396
:103FC000C3F8802024E00FE0800000A0880000A05B
:103FD000A00000A0A80000A08C0000A0AC0000A0E1
:103FE000FEFF0F00FBFF0F00102808D14FF020420A
:103FF000126E684B1A404FF020431A6608E0664A7A
:104000001268644B02EA03024FF02043C3F8802099
:10401000704701460020102903D14FF02042506F15
:1040200001E05E4A1068704710B5F2B1102807D160
:104030004FF020435B6E0B434FF02044636632E049
:10404000B0F5807F08D1564B1B6843EA01034FF05F
:104050002044C4F8843026E0524B1B6843EA010335
:104060004FF02044C4F8A4301DE0102807D14FF0D1
:1040700020435B6E8B434FF02044636613E0B0F542
:10408000807F08D1464B1B6823EA01034FF0204490
:10409000C4F8843007E0434B1B6823EA01034FF068
:1040A0002044C4F8A43010BD10B5024600200023FF
:1040B000102A03D14FF02044636E07E0B2F5807FF1
:1040C00002D1374C236801E0364C23680B4201D003
:1040D000012000E0002010BD102807D14FF0204241
:1040E000526E8A434FF020435A6613E0B0F5807F4A
:1040F00008D12B4A126822EA01024FF02043C3F88C
:10410000842007E0274A126822EA01024FF0204388
:10411000C3F8A420704770B5024600200023002495
:104120000025102A03D14FF02046736E07E0B2F548
:10413000807F02D11A4E336801E01A4E336803EAD9
:10414000010403EAD10514B10DB1012000E0002003
:1041500070BD102808D14FF02042526E22EAD102E1
:104160004FF020435A6613E0B0F5807F08D10C4A27
:10417000126822EAD1024FF02043C3F8842007E0FE
:10418000084A126822EAD1024FF02043C3F8A42063
:1041900070470000BFFF0F00800000A0940000A047
:1041A000840000A0A40000A02DE9FE4F05460E46A5
:1041B00017469846DDE90CA91B4C04F8017B04F86E
:1041C000018B4A4651461848801C01F079F9BDF828
:1041D000000065F30100ADF8000009F10200019054
:1041E00011480290BDF8000066F38200ADF80000AF
:1041F000684600F0D2FDBDE8FE8F1CB504460B48B2
:10420000847001200949087008464078401C4870B5
:1042100002210648401C01231A46CDE90001194637
:104220000220FFF7C1FF1CBD440700203807002013
:10423000014611F0800F03D01B2080EA410000E00E
:104240004800C0B27047102103E0425CFA4B9A5C10
:1042500042540A00A1F10103D9B2F6D170471021EE
:1042600003E0425CF54B9A5C42540A00A1F1010361
:10427000D9B2F6D1704710B50246102003E0135CA6
:104280000C5C634013540300A0F10104E0B2F6D1CA
:1042900010BD30B50346102008E00C5C14541D5CC2
:1042A0006C401C5400F110040D5D15550400A0F184
:1042B0000105E8B2F1D130BD427843794370437AC9
:1042C0004371437B43724273827A83788372827034
:1042D000C178C37BC370C37AC373C379C372C1711E
:1042E000817B83798373817170474278437B43700C
:1042F000437A43734379437242718278837A83703D
:104300008272C178C379C370C37AC371C37BC3722D
:10431000C1738179837B8371817370472DE9F0418B
:104320000346002234E09D5C501C1E5C901C1F5C08
:10433000D01C13F8008085EA0600784080EA080463
:1043400085EA0600FFF774FF6040995C4840985486
:1043500086EA0700FFF76CFF6040511C595C48403B
:10436000511C585487EA0800FFF762FF6040911C17
:10437000595C4840911C585488EA0500FFF758FFE3
:104380006040D11C595C4840D11C5854101DC2B229
:10439000102AC8DBBDE8F0812DE9F84F0346002262
:1043A00051E09C5C501C1D5C901C1E5CD01C1F5C72
:1043B00084EA0500704080EA07084046FFF738FFAE
:1043C00083468BEA040181EA0600FFF731FF009083
:1043D000FFF72EFF80EA08098BEA050181EA070052
:1043E000FFF726FF0090FFF723FF80EA080A84EA20
:1043F0000500FFF71DFF80EA0900995C48409854CA
:1044000085EA0600FFF714FF80EA0A00511C595C98
:104410004840511C585486EA0700FFF709FF80EA1C
:104420000900911C595C4840911C585487EA0400CB
:10443000FFF7FEFE80EA0A00D11C595C4840D11CFF
:104440005854101DC2B2102AABDBBDE8F88F30B54E
:104450000A46437F784CE35C1478634004786340F9
:1044600003704378847F744D2C5D63404370837880
:10447000C47F2C5D63408370C378047F2C5D6340F0
:10448000C3701378DB0903EBC30303EB4303147816
:1044900083EA4403137004211BE0435C0C1F045D9A
:1044A000634043544B1CC35CCC1E045D63404C1CF6
:1044B00003558B1CC35C8C1E045D63408C1C035530
:1044C000CB1CC35C4C1E045D6340CC1C03550B1D10
:1044D000D9B21029E1DB037C047B574D2C5D63408E
:1044E0000374437C447B2C5D63404374837C847BF6
:1044F0002C5D63408374C37CC47B2C5D6340C374B8
:1045000014211BE0435C0C1F045D634043544B1CAF
:10451000C35CCC1E045D63404C1C03558B1CC35C08
:104520008C1E045D63408C1C0355CB1CC35C4C1E6D
:10453000045D6340CC1C03550B1DD9B22029E1DB7F
:1045400030BD30B50A461C211BE0435C0C1F045DE6
:10455000634043544B1CC35CCC1E045D63404C1C45
:1045600003558B1CC35C8C1E045D63408C1C03557F
:10457000CB1CC35C4C1E045D6340CC1C03550B1F5D
:10458000D9B21029E1DC037C047B2B4D2C5D634008
:104590000374437C447B2C5D63404374837C847B45
:1045A0002C5D63408374C37CC47B2C5D6340C37407
:1045B0000C211BE0435C0C1F045D634043544B1C07
:1045C000C35CCC1E045D63404C1C03558B1CC35C58
:1045D0008C1E045D63408C1C0355CB1CC35C4C1EBD
:1045E000045D6340CC1C03550B1FD9B20029E1DCEC
:1045F000137813F0010F01D08D2300E0002314780D
:1046000083EA64031370437F0B4CE35C14786340CC
:104610000478634003704378847F074D2C5D6340CA
:1046200043708378C47F2C5D63408370C378047FBC
:104630002C5D6340C37030BDCA790008CA7A000897
:1046400078B505460E4601200090002407E0315D54
:1046500005F14000015520380155601CC4B2202CE2
:10466000F5D3082404E0694605F14000FFF7EFFEAA
:10467000601EC0B20400F6D178BD0146002008E0FB
:10468000002301F140021354203A13540B54421CEE
:10469000D0B22028F4D3704778B504460E4622469F
:1046A00004F120013046FFF7F4FD012501200090C0
:1046B0001BE03046FFF7C7FD3046FFF7FDFD3046F3
:1046C000FFF72CFE15F0010F05D004F11001304664
:1046D000FFF7D1FD07E069462046FFF7B8FE214607
:1046E0003046FFF7C8FD681CC5B20E2DE1DB304631
:1046F000FFF7A9FD3046FFF7DFFD69462046FFF7CB
:10470000A6FE21463046FFF7B6FD78BD78B50446D3
:104710000D46224604F140012846FFF7BAFD28461F
:10472000FFF7E3FD2846FFF79AFD0E268020009054
:1047300019E016F0010F09D069462046FFF701FF86
:1047400004F110012846FFF796FD03E021462846B4
:10475000FFF791FD2846FFF71FFE2846FFF7C5FD2E
:104760002846FFF77CFD701EC0B20600E1D121464D
:104770002846FFF780FD78BD30B5CBB280EA030252
:10478000D4B2FE4D35F8144084EA202030BD30B557
:10479000CBB280EA0302D4B2F94D55F8244084EA42
:1047A000102030BDF0B505460E4643F6A327002481
:1047B00005E0295D3846FFF7DFFF0746641CB44279
:1047C000F7D33846F0BDF0B505460E4643F6A327AD
:1047D000002405E0295D3846FFF7D9FF0746641C31
:1047E000B442F7D33846F0BDE649086070472DE97A
:1047F000F04104460F460B25A088461BA01D8119D9
:104800002A4600F0A2FEA11D4819314600F011FF12
:10481000A580BDE8F0812DE9F04F99B080460C46A7
:1048200015462079C0F3421010B919B0BDE8F08FD9
:104830002068C0F309200C2800D1F6E72068C0F3F7
:104840000920102800D8F0E704F10C0B2068C0F311
:104850000920A0F1100A4FEA1A19002708F59971EA
:1048600001A8FFF7EDFE002605E00BEB070101A80C
:10487000A8471037761C4E45F7D301A8FFF7FDFE79
:10488000AFF2771085420AD12068C0F30920217960
:1048900001F01F01411A206861F31120206000BF60
:1048A000C3E770B50446A51DB648006848B1AFF22D
:1048B000A31229462046FFF7AEFFA01DB1490968A3
:1048C000884729462046FFF792FF70BD10B5044681
:1048D000A08848B1A088401EA080A08820B1A288EE
:1048E000E11DA01D00F031FE10BD70B504460D465F
:1048F000A088B0F5967F06DAA188A01D4554A0884F
:10490000401CA08005E0A188A01D00F092FE0020C0
:10491000A08070BD2DE9F0470446A51DA0880C3885
:1049200086B205F10C082088801B87B205EB0709C9
:1049300032464146484600F008FE0C20A080204642
:10494000FFF7C4FF27806088401C6080BDE8F087C7
:1049500070B50446A51D2868C0F309212846FFF755
:1049600032FF18B92046FFF79CFF02E02046FFF710
:10497000D1FF70BD70B50546AC1D2078AA281DD1A9
:104980002068C0F38540C8B92068C0F30920B0F59D
:10499000967F13DC2068800F10D16068000A0DD16B
:1049A0000C212046FFF7FEFE40B92068C0F3092025
:1049B0000C2806D12846FFF774FF02E02846FFF7CF
:1049C00085FF70BD70B50446A51DA0880C280FD3C7
:1049D000A0880C2803D12046FFF7CCFF08E0A08870
:1049E0002968C1F30921884202D12046FFF7B0FFB0
:1049F00070BD70B504460D4629462046FFF775FF89
:104A00002046FFF7DFFF70BD10B5044600205E4969
:104A100048804FF49670088021465B48FFF7E9FF15
:104A200059484088A8B10CE057480188801D445C73
:104A3000801F0088401C5449088021465248FFF7D7
:104A4000D8FF51480088B0F5967FEDDB00204E4935
:104A5000488010BDF0B505462C462E462078AA2881
:104A600000D0F0BD2068C0F3854000B1F9E72068B0
:104A7000C0F30920B0F5967F00DDF2E72068C0F3AF
:104A800009200C2805D92068C0F30920102800D27D
:104A9000E7E70A213046FFF785FEA16860F31F4172
:104AA000A1602068C0F30920102808D32068C0F353
:104AB0000920071F39463046FFF785FEF05100BF39
:104AC000CFE77CB504460E4600208DF806008DF831
:104AD00005008DF8040000250EE020788DF8040014
:104AE00060788DF805006A4628A101A800F022FC34
:104AF00000987055A41C6D1C202DEEDB7CBD70B59C
:104B000004460D4604F599712846FFF7DAFF0120A7
:104B100084F8520170BD10B5044621461A48FFF7CB
:104B2000EEFF10BD2DE9F05F0746884615469A4610
:104B3000DDE90A9B3C46B5F5806F02DD0020BDE84B
:104B4000F09F15B1B8F1000F01D10C2602E005F17C
:104B5000100086B2B9F1000F0AD02846E91705EB1C
:104B600011710911A5EB0111C1F1100131448EB28F
:104B7000206820F0FF00AA30206009E054000020E7
:104B80005402002054060020440B00202578000029
:104B9000206866F311202060206820F47C002060EB
:104BA00020686BF31C602060BAF1000F01D0012176
:104BB00000E00021206861F35D702060206820F033
:104BC00040402060B9F1000F09D02846E91705EBF5
:104BD00011710911A5EB0111C1F1100100E00021D3
:104BE000626861F304026260B9F1000F01D0012133
:104BF00000E00021606861F3471060602079606028
:104C00000C98A16860F30F01A160208980B2A060B8
:104C1000B8F1000F06D02DB12A46414607F10C002D
:104C200000F04EFCAFF28F5221460448FFF7F3FD2F
:104C30003846FFF70FFF304681E70000440B0020A5
:104C400070B5044625462868C0F309212046FEF7C2
:104C500072F970BD10B50246002112E001EB41036C
:104C60009C4C04EB83035B784BB901EB410304EBF1
:104C700083000123437043681344836003E04B1CAB
:104C8000D9B21E29EADB00BF10BD4178012901D14C
:104C9000002141707047F0B507460025002600242A
:104CA00016E08D4800EB04100078C0F3401070B996
:104CB000894800EB0410006820F02000203086496D
:104CC00001EB04110860844800EB041502E0641C49
:104CD0001E2CE6DB00BF3846FFF7BCFF06460EB9C8
:104CE000002500E06E602846F0BD00B50246107851
:104CF000C0F3401030B15068FFF7C7FF106820F0D4
:104D00002000106000BD002032E0811C724A02EBDE
:104D10000012126861F304026F4901EB00110A608E
:104D20006D4901EB0011096821F020016A4A02EB8C
:104D3000001211604FF48031674A02EB001291605B
:104D400000EB4001634A02F82100002100EB400221
:104D5000604B03EB8202517000EB40115F4A02EBA3
:104D6000011100EB400203EB82025160411CC8B20A
:104D70001E28CADB5A49096821F02001584A1160EF
:104D80001146096821F01F01491C1160704710B5D8
:104D900004462046FFF7BFFE10BDFEB504460026C0
:104DA00000256068B0F5007F01D9681EFEBD20783F
:104DB00010F0030004D0012820D002281DD14BE0C0
:104DC0004848008847490988491C464A1180002202
:104DD0002178C1F38001CDE900120290A08882B24F
:104DE00000234148A168FFF79DFE064616B94FF023
:104DF000FF30DBE73C48FFF723FF67E03848806877
:104E000038490988884204D136480088401C354911
:104E10000880344800883249886032480088314927
:104E20000988491C2F4A1180014601222078C0F3CD
:104E30008000CDE901210090A08882B200232A4899
:104E4000A168FFF76FFE064616B94FF0FF30ADE7D9
:104E50002548FFF7F5FE39E0A188103188B2FFF749
:104E60001AFF05468DB31F490988A868884204D1F6
:104E70001C480088401C1B4908801A480088A8600C
:104E80001848008817490988491C164A1180297852
:104E900001F01F012278C2F38002CDE900210290C7
:104EA000A3889AB2A1686B6858680023FFF73AFE9E
:104EB00006462EB92846FFF718FF4FF0FF3075E77A
:104EC00069684868FFF7BCFE002600BF00BF0020ED
:104ED0006CE7000098100020B80E0020001200209F
:104EE000980C002058060020A80C002010B5CB48D4
:104EF000CB49086002204860012088602022C9A1B7
:104F0000C7480C3000F063FBCC48CD490860084628
:104F10000068FFF73CFFFFF7F6FE10BD1CB52C2024
:104F2000BF4901230022CDE9001011460220FFF7FE
:104F30003BF91CBD3EB504460294012002A90023A2
:104F40000246CDE900100146FFF72EF93EBD70B5CF
:104F5000044625462846FFF750F970BD2DE9F04775
:104F600088B004460D4616461F46DDE9109A142106
:104F700003A800F080FB8DF80C40CDF80D60CDF853
:104F80001170CDF81590CDF819A04FF0000810E081
:104F9000112003A903230122CDE9001000210846B6
:104FA000FFF702F90120FDF744FF08F1010000F0CE
:104FB000FF08A845ECD308B0BDE8F0871CB5002079
:104FC000009003464FF08042642101904820FFF793
:104FD000C5FF4FF4C870FDF72CFF002000904FF084
:104FE00080430246642101904820FFF7B7FF4FF449
:104FF000C870FDF71EFF0020009003464FF04042AE
:10500000642101904820FFF7A9FF4FF4C870FDF715
:1050100010FF002000904FF04043024664210190B1
:105020004820FFF79BFF4FF4C870FDF702FF0020F8
:105030004FF0804103460246CDE90010642148202C
:10504000FFF78CFF4FF4C870FDF7F3FE00200090CF
:1050500003464FF08042642101904820FFF77EFF15
:105060004FF4C870FDF7E5FE00204FF040410346C5
:105070000246CDE9001064214820FFF76FFF4FF48E
:10508000C870FDF7D6FE00204FF08041034602466F
:10509000CDE9001064214820FFF760FF4FF4C8708D
:1050A000FDF7C7FE002000904FF0804302466421C8
:1050B00001904820FFF752FF4FF4C870FDF7B9FE8A
:1050C00000204FF0404103460246CDE90010642124
:1050D0004820FFF743FF4FF4C870FDF7AAFE0020F9
:1050E0004FF0804103460246CDE90010642148207C
:1050F000FFF734FF4FF4C870FDF79BFE00200090CF
:1051000003464FF04042642101904820FFF726FFFC
:105110004FF4C870FDF78DFE00204FF0404103466C
:105120000246CDE9001064214820FFF717FF4FF435
:10513000C870FDF77EFE00204FF080410346024616
:10514000CDE9001064214820FFF708FF4FF4C87034
:10515000FDF76FFE002000904FF0404302466421AF
:1051600001904820FFF7FAFE4FF4C870FDF761FE8A
:105170001CBD2DE9F04788B0142102A800F07BFA8D
:105180004FF0000A43E050208DF80800504601F02F
:1051900065FC80462B4A2C4B01F074FC064601F05E
:1051A00019F904460022294B01F06CFCCDE90001FD
:1051B00001F0D4F9CDF80900504601F04FFC064645
:1051C000204A214B01F05EFC044601F059F980466B
:1051D00000221E4B01F056FCCDE9000101F0BEF9A2
:1051E000CDF80D001A48CDF811000020CDF81500BB
:1051F000112002A903230122CDE900100021084655
:10520000FEF7D2FF0120FDF714FE0AF1010A40F675
:10521000B8308245B7D308B0BDE8F087024B0F0025
:105220005C0600203132333435363738393031328C
:10523000333435363738393031320000CC7B000812
:1052400088060020C3718BB665BC793F0000F03F33
:1052500000002041704700000FB4044910B503AAB4
:10526000029800F09BFA10BC5DF814FB3C00002093
:105270002DE9F0410E460446002020622046E168F8
:10528000884730B3252805D0D4E901219047206A0A
:10529000401CF2E7E168204600278847050018D047
:1052A000A5F14100192802D820354FF40067324695
:1052B000294620462760FAF799FF40B1012804D01B
:1052C000F61D26F007060836D8E7361DD6E728462D
:1052D000DAE7206ABDE8F08170B504460D46214644
:1052E0001068AFF300802188090502D5104A7A447E
:1052F00002E00F4A7A440E32002104F1240307E051
:1053000000F00F064FEA1010965D5E5401F10101A6
:105310000028F5D103462078000704D5702D02D06F
:1053200009B1113202232046BDE8704000F0D9B91E
:105330001B2900000FB400B58DB010A90990009191
:105340000B904FF0FF300A9000200C9006487844F4
:105350000690064878446A4607900F9909A800F01D
:1053600043FA0DB05DF814FBB7040000CF04000051
:105370002DE9FF5F1D464FF0FF3B91464FF00008BF
:105380005F46D5E90146A96901987F1C8847296ACB
:10539000824688470028F6D11AF101000CD0002E71
:1053A00024F4C06419DD600614D5BAF12B0F09D0BE
:1053B000BAF12D0F0ED103E0584604B0BDE8F09FBE
:1053C00044F48064A96901987F1C8847761E824650
:1053D000002E02DDBAF1300F03D0B9F1000F26D054
:1053E00032E0A969761E01987F1C44F40074884756
:1053F000002E824605DDBAF1780F06D0BAF1580FBB
:1054000003D0B9F1000F10D01EE0B9F1000F02D0A7
:10541000B9F1100F18D1A969761E01987F1C24F4E8
:10542000007488478246102002E0082000E00A202D
:10543000814609E0A96908FB0908761E01987F1CCE
:1054400044F4007488478246002E05DD49465046E4
:1054500000F0B6F90028EDDAE96901988847A0055F
:1054600002D46FF00100A8E7E00727D1600614D549
:10547000600502D5C8F1000000E04046296801F14E
:1054800004022A600968220501D5087016E0220787
:1054900001D5088012E0086010E0286800F10401DE
:1054A00029600068210502D580F8008006E0210708
:1054B00002D5A0F8008001E0C0F8008038467CE703
:1054C000032A40F2308010F0030C00F0158011F830
:1054D000013BBCF1020F624498BF11F801CB00F808
:1054E000013B38BF11F8013BA2F1040298BF00F85C
:1054F00001CB38BF00F8013B11F0030300F06780D7
:10550000083AC0F0088051F8043B083A51F804CB3F
:10551000A0E80810F5E7121D5CBF51F8043B40F805
:10552000043BAFF30080D20724BF11F8013B11F810
:1055300001CB48BF11F8012B24BF00F8013B00F854
:1055400001CB48BF00F8012B7047431A28BF9A428D
:105550007FF6B6AF032A1044114440F2268010F0C3
:10556000030F1EBF11F8013D521E00F8013D10F05F
:10557000030F7FF4F6AF11F0030300F07881083ACF
:10558000C0F00B8051F8043D083A51F804CD40F8C2
:10559000043D40F804CDFFF7F3BF121D5CBF51F886
:1055A000043D40F8043DAFF30080D20724BF11F85A
:1055B000013D11F801CD48BF11F8012C24BF00F8BE
:1055C000013D00F801CD48BF00F8012C704710B52F
:1055D000203AC0F00B80B1E81850203AA0E81850EB
:1055E000B1E81850A0E81850BFF4F5AF5FEA027CAC
:1055F00024BFB1E81850A0E8185044BF18C918C01B
:10560000BDE810405FEA827C24BF51F8043B40F8BB
:10561000043B08BF7047D20728BF31F8023B48BFA0
:1056200011F8012B28BF20F8023B48BF00F8012BDE
:1056300070474FF000020429C0F0128010F0030CF4
:1056400000F01B80CCF1040CBCF1020F18BF00F875
:10565000012BA8BF20F8022BA1EB0C0100F00DB824
:105660005FEAC17C24BF00F8012B00F8012B48BF82
:1056700000F8012B70474FF0000200B51346944626
:105680009646203922BFA0E80C50A0E80C50B1F19A
:105690002001BFF4F7AF090728BFA0E80C5048BFAE
:1056A0000CC05DF804EB890028BF40F8042B08BF4C
:1056B000704748BF20F8022B11F0804F18BF00F848
:1056C000012B7047704770477047704710B500F066
:1056D000F9F8006810BD10B5044600F0F3F8046056
:1056E00010BD2DE9F0470D4699469246044600F15B
:1056F00024080168880604D5E06921F010012160C2
:1057000000E00120A84202DDA0EB050700E0002731
:10571000A16907EB050202EB0900A1EB0000A06103
:105720002078C00602D42046AFF30080002608E0AF
:10573000D4E901211AF806009047206A401C761C23
:1057400020624E45F4DB2078C0060AD52046AFF330
:10575000008006E0D4E9012130209047206A401CF7
:105760002062381EA7F10107F4DC07E0D4E901212B
:1057700018F805009047206A401C2062281EA5F1F9
:105780000105F3DC2046AFF300802078000602D547
:105790000220BDE8F0870120FBE70000074B70B551
:1057A0000D467B4400F0A1F80446284600F068FA54
:1057B00010B14FF0FF3070BD204670BDDDD6FFFF49
:1057C0003A2800D2303820F02002412A01D3A2F139
:1057D0003700884201D34FF0FF3070470268114410
:1057E0001378016018467047D160054979445161CA
:1057F00004497944116200211161114600F088B812
:10580000EDFFFFFFD7000000426842B1016811F8C8
:10581000013B23B1521EC0E9001218467047012116
:10582000C160881E704742685AB1C368016843B9B5
:1058300083688B4205D0491E521CC0E9001200202B
:1058400070474FF0FF307047431A28BF9A427FF6E7
:10585000BEAE104410F0030F11441EBF11F8013DFD
:10586000521E00F8013D10F0030F7FF4F6AF103A1E
:10587000C0F00A8010B531E91850103A20E91850EC
:10588000BFF4F9AFBDE81040530724BF31E9081059
:1058900020E9081044BF51F8043D40F8043D12F0DF
:1058A000030F08BF7047D20728BF31F8023D48BF39
:1058B00011F8012C28BF20F8023D48BF00F8012C48
:1058C0007047000000487047E04F002010B50446C4
:1058D00000F004FA0068005D00F0010010BD000057
:1058E00001694A1C02610878704700B58FB0CDE9A4
:1058F00001310021059105497944CDE90310114694
:105900006846FFF7B5FC0FB000BD0000E5FFFFFFE4
:105910002DE9F34F4FF0000A0C4656468DB001209A
:105920000C9001F10C000B9062690B9801219047DB
:1059300005002DD0252D2CD0216A8847C0B1626981
:105940000B9801219047216A88470028F7D16269A6
:10595000411E0B98904700E0761CA1690D9888477E
:10596000216A88470028F7D1E1690D988847DBE76D
:10597000A1690D988847A842074601D1761CD3E754
:10598000E1690D9888477F1C02D1BAF1000F6FD0F2
:105990006AE162690B9800273D46394690472A28FC
:1059A00004D162690B98012190470125DFF8CC8270
:1059B00062690B9801219047A0F130010A290AD2AF
:1059C0004745E5DC07EB870100EB4107303FDFD4BB
:1059D00045F01005ECE7E90601D46FF000476C28AC
:1059E0000AD04C2814D0682815D06A280DD0742805
:1059F0001CD07A281AD01DE062690B9801219047CB
:105A00006C2802D045F0040514E045F002050DE0D5
:105A100045F020050AE062690B980121904768284B
:105A200002D045F0080505E045F4006562690B9871
:105A300001219047C4E9015765283DD019DC582859
:105A400079D00CDC452837D004DC252826D0412825
:105A50009ED131E046282FD0472899D12CE05B28F1
:105A60007FD0612828D063287BD0642890D159E06A
:105A7000F5E06F2847D008DC66281DD067281BD0CA
:105A8000692821D06E2816D127E0702844D07328C9
:105A900067D0752846D078280DD14CE0A1690D98C3
:105AA0008847252805463FF469AFE1690D98884786
:105AB0006D1C3FF46AAFD7E00D9923466A466FF03C
:105AC0000100AFF30080C4E045F0400023464FF0F2
:105AD00000026060A80735D43DE0206800F10401B1
